:1000000045C0000060C000005EC000005CC0000091
:100010005AC0000058C0000056C0000054C0000084
:1000200052C0000050C000004EC000004CC0000094
:100030004AC0000048C0000046C0000044C00000A4
:1000400042C0000040C000003EC000003CC00000B4
:100050003AC0000038C0000036C0000034C00000C4
:1000600032C0000030C000002EC000002CC00000D4
:100070002AC0000028C0000026C0000024C00000E4
:1000800022C0000020C000001EC0000011241FBEBE
:10009000CFEFD0E4DEBFCDBF11E0A0E0B1E0E2E9F8
:1000A000F7E000E00BBF02C007900D92A233B1074A
:1000B000D9F721E0A2E3B1E001C01D92A833B20755
:1000C000E1F776D064C39CCF88B1886088B988EBAB
:1000D0008A95F1F7000088B1877F88B9089514B830
:1000E0008BB18B7F8BB98BB188608BB92F99FECF89
:1000F000EBDF8FEF84B90895CF93C82FF0DFC5B938
:100100008BB1837F8BB9E0DF14B815B8CF91089518
:10011000CF93C82FE4DFC5B98BB1877F8BB98BB183
:1001200084608BB9D1DF14B815B8CF910895CF93FF
:10013000DF93EC0102C02196EBDF88818111FBCFB8
:10014000DF91CF910895E62FF0E0E150FF4F20813D
:1001500030E020583F4F90E00197820FCDCF0895B7
:100160008AB18C608AB987B1886087B98FEF91EACC
:100170000197F1F700C0000081E0BEDF89E995E159
:100180000197F1F700C088E3B7DF98EB9A95F1F794
:1001900000008CE0B1DF88EB8A95F1F7000081E088
:1001A000ABDF8FEF9BE60197F1F700C000000895E9
:1001B000A3D087B1846087B9D3DF4BD1789461E055
:1001C00081E0C1DF82E191E0B2DF2FEF8FE793E4BE
:1001D000215080409040E1F700C000004CD1EC017C
:1001E000182F63E081E0AFDFDD27CE0191DF133709
:1001F000A1F441E050E060E070E080E090E09BD04E
:1002000041E050E060E070E081E090E094D063E095
:1002100081E099DFCE017CDFE1CF1636A1F441E029
:1002200050E062E370E080E090E085D041E050E093
:1002300062E370E081E090E07ED063E081E083DF04
:10024000CE0166DFCBCF1235A1F441E050E062E38E
:1002500070E080E090E06FD041E050E060E070E05E
:1002600081E090E068D063E081E06DDFCE0150DF97
:10027000B5CF1C34A1F441E050E060E070E080E0D4
:1002800090E059D041E050E062E370E081E090E01E
:1002900052D063E081E057DFCE013ADF9FCF1237C3
:1002A000A1F441E050E062E370E080E090E043D0F0
:1002B00041E050E069E170E081E090E03CD063E033
:1002C00081E041DFCE0124DF89CF1C3609F086CFE3
:1002D00041E050E069E170E080E090E02CD041E046
:1002E00050E062E370E081E090E025D063E081E0DF
:1002F0002ADFCE010DDF72CF87B1806F87B98AB157
:1003000080638AB9E0E8F0E08081826A8083E1E876
:10031000F0E080818A61808380EA9FE0909387008B
:1003200080938600109289001092880010928B00B2
:1003300010928A000895CF92DF92EF92FF920F936E
:100340001F93CF93C42F811137C06623F9F08AB170
:1003500080628AB970E080E090E028D10091860048
:100360001091870020E030E048EC52E48BD06B0124
:100370007C01B80180E090E019D1A7019601A4D1D9
:10038000E9D0709389006093880003C08AB18F7DA3
:100390008AB9C11107C088B1806488B988B18F77E4
:1003A00088B93FC0C13009F03CC088B18F7B88B9A3
:1003B00088B1806888B935C06623F9F08AB1806158
:1003C0008AB970E080E090E0F1D000918600109151
:1003D000870020E030E048EC52E454D06B017C010F
:1003E000B80180E090E0E2D0A70196016DD1B2D0D3
:1003F00070938B0060938A0003C08AB18F7E8AB9A4
:10040000C11107C088B1806188B988B18F7D88B972
:1004100008C0C13031F488B18F7E88B988B180625C
:1004200088B9CF911F910F91FF90EF90DF90CF90FF
:100430000895CF93C82F8A3011F48DE0FADF8091B0
:10044000C00085FFFCCFC093C60080E090E0CF9154
:10045000089584E091E090933501809334011092E7
:10046000C50087E48093C40088E18093C1008EE0DA
:100470008093C20008958091C0008823E4F78091A2
:10048000C60008950CD0E6C0DED040F0D5D030F0E4
:1004900021F45F3F19F0C7C0511110C1CAC0EBD0A1
:1004A00098F39923C9F35523B1F3951B550BBB273B
:1004B000AA2762177307840738F09F5F5F4F220FE8
:1004C000331F441FAA1FA9F333D00E2E3AF0E0E8E1
:1004D00030D091505040E695001CCAF729D0FE2F2D
:1004E00027D0660F771F881FBB1F261737074807BF
:1004F000AB07B0E809F0BB0B802DBF01FF27935875
:100500005F4F2AF09E3F510568F08DC0D7C05F3F16
:10051000ECF3983EDCF3869577956795B795F7955C
:100520009F5FC9F7880F911D9695879597F9089554
:10053000E1E0660F771F881FBB1F621773078407F0
:10054000BA0720F0621B730B840BBA0BEE1F88F7FF
:10055000E095089598D088F09F5790F0B92F99278B
:10056000B751A0F0D1F0660F771F881F991F1AF0BE
:10057000BA95C9F712C0B13081F09FD0B1E00895AB
:100580009CC0672F782F8827B85F39F0B93FCCF32C
:10059000869577956795B395D9F73EF490958095B4
:1005A000709561957F4F8F4F9F4F0895E89409C0D4
:1005B00097FB3EF490958095709561957F4F8F4F96
:1005C0009F4F9923A9F0F92F96E9BB279395F695AC
:1005D000879577956795B795F111F8CFFAF4BB0F2A
:1005E00011F460FF1BC06F5F7F4F8F4F9F4F16C08E
:1005F000882311F096E911C0772321F09EE8872F18
:10060000762F05C0662371F096E8862F70E060E0D3
:100610002AF09A95660F771F881FDAF7880F96954C
:10062000879597F9089597F99F6780E870E060E0F3
:1006300008959FEF80EC089500240A94161617067B
:1006400018060906089500240A94121613061406C3
:1006500005060895092E0394000C11F4882352F026
:10066000BB0F40F4BF2B11F460FF04C06F5F7F4FDE
:100670008F4F9F4F089557FD9058440F551F59F0C5
:100680005F3F71F04795880F97FB991F61F09F3F7F
:1006900079F087950895121613061406551FF2CFA8
:1006A0004695F1DF08C0161617061806991FF1CFF8
:1006B00086957105610508940895E894BB2766271F
:1006C0007727CB0197F908950BD0C4CFB5DF28F079
:1006D000BADF18F0952309F0A6CFABCF1124EECFE7
:1006E000CADFA0F3959FD1F3950F50E0551F629F8D
:1006F000F001729FBB27F00DB11D639FAA27F00D7B
:10070000B11DAA1F649F6627B00DA11D661F829FA1
:100710002227B00DA11D621F739FB00DA11D621F86
:10072000839FA00D611D221F749F3327A00D611DA3
:10073000231F849F600D211D822F762F6A2F112485
:100740009F5750408AF0E1F088234AF0EE0FFF1FD8
:10075000BB1F661F771F881F91505040A9F79E3F0F
:10076000510570F060CFAACF5F3FECF3983EDCF309
:10077000869577956795B795F795E7959F5FC1F74C
:10078000FE2B880F911D9695879597F90895F894FB
:02079000FFCF99
:100792000040145400000002000000001902000092
:1007A20000005265616479797979790020202020EE
:1007B2002020202020202020202020202020202037
:0207C200000035
:00000001FF
